{
  "_format": "hh-sol-artifact-1",
  "contractName": "Transactions",
  "sourceName": "contracts/Transactions.sol",
  "abi": [
    {
      "anonymous": false,
      "inputs": [
        {
          "indexed": false,
          "internalType": "address",
          "name": "from",
          "type": "address"
        },
        {
          "indexed": false,
          "internalType": "address",
          "name": "receiver",
          "type": "address"
        },
        {
          "indexed": false,
          "internalType": "uint256",
          "name": "amount",
          "type": "uint256"
        },
        {
          "indexed": false,
          "internalType": "string",
          "name": "message",
          "type": "string"
        },
        {
          "indexed": false,
          "internalType": "uint256",
          "name": "timestamp",
          "type": "uint256"
        }
      ],
      "name": "Transfer",
      "type": "event"
    },
    {
      "inputs": [
        {
          "internalType": "address payable",
          "name": "receiver",
          "type": "address"
        },
        {
          "internalType": "uint256",
          "name": "amount",
          "type": "uint256"
        },
        {
          "internalType": "string",
          "name": "message",
          "type": "string"
        }
      ],
      "name": "addToBlockchain",
      "outputs": [],
      "stateMutability": "nonpayable",
      "type": "function"
    },
    {
      "inputs": [],
      "name": "getAllTransactions",
      "outputs": [
        {
          "components": [
            {
              "internalType": "address",
              "name": "sender",
              "type": "address"
            },
            {
              "internalType": "address",
              "name": "receiver",
              "type": "address"
            },
            {
              "internalType": "uint256",
              "name": "amount",
              "type": "uint256"
            },
            {
              "internalType": "string",
              "name": "message",
              "type": "string"
            },
            {
              "internalType": "uint256",
              "name": "timestamp",
              "type": "uint256"
            }
          ],
          "internalType": "struct Transactions.TransferStruct[]",
          "name": "",
          "type": "tuple[]"
        }
      ],
      "stateMutability": "view",
      "type": "function"
    },
    {
      "inputs": [],
      "name": "getTransactionCount",
      "outputs": [
        {
          "internalType": "uint256",
          "name": "",
          "type": "uint256"
        }
      ],
      "stateMutability": "view",
      "type": "function"
    }
  ],
  "bytecode": "0x608060405234801561001057600080fd5b50610679806100206000396000f3fe608060405234801561001057600080fd5b50600436106100415760003560e01c806327506f53146100465780632e7700f014610064578063eb12da4a14610075575b600080fd5b61004e61008a565b60405161005b9190610529565b60405180910390f35b60005460405190815260200161005b565b6100886100833660046103c6565b6101b3565b005b60606001805480602002602001604051908101604052809291908181526020016000905b828210156101aa5760008481526020908190206040805160a0810182526005860290920180546001600160a01b0390811684526001820154169383019390935260028301549082015260038201805491929160608401919061010f906105f2565b80601f016020809104026020016040519081016040528092919081815260200182805461013b906105f2565b80156101885780601f1061015d57610100808354040283529160200191610188565b820191906000526020600020905b81548152906001019060200180831161016b57829003601f168201915b50505050508152602001600482015481525050815260200190600101906100ae565b50505050905090565b60016000808282546101c591906105ce565b90915550506040805160a0810182523381526001600160a01b03858116602080840191825293830186815260608401868152426080860152600180548082018255600091909152855160059091027fb10e2d527612073b26eecdfd717e6a320cf44b4afac2b0732d9fcbe2b7fa0cf6810180549287166001600160a01b031993841617815594517fb10e2d527612073b26eecdfd717e6a320cf44b4afac2b0732d9fcbe2b7fa0cf7820180549190971692169190911790945590517fb10e2d527612073b26eecdfd717e6a320cf44b4afac2b0732d9fcbe2b7fa0cf8840155518051939491936102dc937fb10e2d527612073b26eecdfd717e6a320cf44b4afac2b0732d9fcbe2b7fa0cf90192919091019061032d565b506080820151816004015550507fc4b32d7ff75a51e487f3cbb5d3202f2efecca1f4c2b987e0039c1d3220b48a8333848484426040516103209594939291906104e4565b60405180910390a1505050565b828054610339906105f2565b90600052602060002090601f01602090048101928261035b57600085556103a1565b82601f1061037457805160ff19168380011785556103a1565b828001600101855582156103a1579182015b828111156103a1578251825591602001919060010190610386565b506103ad9291506103b1565b5090565b5b808211156103ad57600081556001016103b2565b6000806000606084860312156103da578283fd5b83356001600160a01b03811681146103f0578384fd5b925060208401359150604084013567ffffffffffffffff80821115610413578283fd5b818601915086601f830112610426578283fd5b8135818111156104385761043861062d565b604051601f8201601f19908116603f011681019083821181831017156104605761046061062d565b81604052828152896020848701011115610478578586fd5b82602086016020830137856020848301015280955050505050509250925092565b60008151808452815b818110156104be576020818501810151868301820152016104a2565b818111156104cf5782602083870101525b50601f01601f19169290920160200192915050565b6001600160a01b038681168252851660208201526040810184905260a06060820181905260009061051790830185610499565b90508260808301529695505050505050565b60006020808301818452808551808352604092508286019150828160051b870101848801865b838110156105c057888303603f19018552815180516001600160a01b039081168552888201511688850152868101518785015260608082015160a0828701819052919061059e83880182610499565b608094850151979094019690965250509487019492509086019060010161054f565b509098975050505050505050565b600082198211156105ed57634e487b7160e01b81526011600452602481fd5b500190565b600181811c9082168061060657607f821691505b6020821081141561062757634e487b7160e01b600052602260045260246000fd5b50919050565b634e487b7160e01b600052604160045260246000fdfea264697066735822122053cad637f28328c1732013c01691d6cd56b2c9845e8bce43d027d8964de1d6a964736f6c63430008040033",
  "linkReferences": {},
  "deployedLinkReferences": {}
}